{
  "contractName": "PlayCards",
  "abi": [
    {
      "inputs": [
        {
          "internalType": "string",
          "name": "name",
          "type": "string"
        },
        {
          "internalType": "string",
          "name": "symbol",
          "type": "string"
        },
        {
          "internalType": "string",
          "name": "baseTokenURI",
          "type": "string"
        },
        {
          "internalType": "uint256",
          "name": "totalSupply",
          "type": "uint256"
        }
      ],
      "stateMutability": "nonpayable",
      "type": "constructor"
    },
    {
      "anonymous": false,
      "inputs": [
        {
          "indexed": true,
          "internalType": "address",
          "name": "owner",
          "type": "address"
        },
        {
          "indexed": true,
          "internalType": "address",
          "name": "approved",
          "type": "address"
        },
        {
          "indexed": true,
          "internalType": "uint256",
          "name": "tokenId",
          "type": "uint256"
        }
      ],
      "name": "Approval",
      "type": "event"
    },
    {
      "anonymous": false,
      "inputs": [
        {
          "indexed": true,
          "internalType": "address",
          "name": "owner",
          "type": "address"
        },
        {
          "indexed": true,
          "internalType": "address",
          "name": "operator",
          "type": "address"
        },
        {
          "indexed": false,
          "internalType": "bool",
          "name": "approved",
          "type": "bool"
        }
      ],
      "name": "ApprovalForAll",
      "type": "event"
    },
    {
      "anonymous": false,
      "inputs": [
        {
          "indexed": true,
          "internalType": "address",
          "name": "previousOwner",
          "type": "address"
        },
        {
          "indexed": true,
          "internalType": "address",
          "name": "newOwner",
          "type": "address"
        }
      ],
      "name": "OwnershipTransferred",
      "type": "event"
    },
    {
      "anonymous": false,
      "inputs": [
        {
          "indexed": true,
          "internalType": "address",
          "name": "from",
          "type": "address"
        },
        {
          "indexed": true,
          "internalType": "address",
          "name": "to",
          "type": "address"
        },
        {
          "indexed": true,
          "internalType": "uint256",
          "name": "tokenId",
          "type": "uint256"
        }
      ],
      "name": "Transfer",
      "type": "event"
    },
    {
      "inputs": [],
      "name": "_initialValue",
      "outputs": [
        {
          "internalType": "uint256",
          "name": "",
          "type": "uint256"
        }
      ],
      "stateMutability": "view",
      "type": "function"
    },
    {
      "inputs": [],
      "name": "_totalSupply",
      "outputs": [
        {
          "internalType": "uint256",
          "name": "",
          "type": "uint256"
        }
      ],
      "stateMutability": "view",
      "type": "function"
    },
    {
      "inputs": [
        {
          "internalType": "address",
          "name": "to",
          "type": "address"
        },
        {
          "internalType": "uint256",
          "name": "tokenId",
          "type": "uint256"
        }
      ],
      "name": "approve",
      "outputs": [],
      "stateMutability": "nonpayable",
      "type": "function"
    },
    {
      "inputs": [
        {
          "internalType": "address",
          "name": "owner",
          "type": "address"
        }
      ],
      "name": "balanceOf",
      "outputs": [
        {
          "internalType": "uint256",
          "name": "",
          "type": "uint256"
        }
      ],
      "stateMutability": "view",
      "type": "function"
    },
    {
      "inputs": [
        {
          "internalType": "address",
          "name": "",
          "type": "address"
        }
      ],
      "name": "earnings",
      "outputs": [
        {
          "internalType": "uint256",
          "name": "",
          "type": "uint256"
        }
      ],
      "stateMutability": "view",
      "type": "function"
    },
    {
      "inputs": [
        {
          "internalType": "uint256",
          "name": "tokenId",
          "type": "uint256"
        }
      ],
      "name": "getApproved",
      "outputs": [
        {
          "internalType": "address",
          "name": "",
          "type": "address"
        }
      ],
      "stateMutability": "view",
      "type": "function"
    },
    {
      "inputs": [
        {
          "internalType": "address",
          "name": "owner",
          "type": "address"
        },
        {
          "internalType": "address",
          "name": "operator",
          "type": "address"
        }
      ],
      "name": "isApprovedForAll",
      "outputs": [
        {
          "internalType": "bool",
          "name": "",
          "type": "bool"
        }
      ],
      "stateMutability": "view",
      "type": "function"
    },
    {
      "inputs": [],
      "name": "name",
      "outputs": [
        {
          "internalType": "string",
          "name": "",
          "type": "string"
        }
      ],
      "stateMutability": "view",
      "type": "function"
    },
    {
      "inputs": [],
      "name": "owner",
      "outputs": [
        {
          "internalType": "address",
          "name": "",
          "type": "address"
        }
      ],
      "stateMutability": "view",
      "type": "function"
    },
    {
      "inputs": [
        {
          "internalType": "uint256",
          "name": "tokenId",
          "type": "uint256"
        }
      ],
      "name": "ownerOf",
      "outputs": [
        {
          "internalType": "address",
          "name": "",
          "type": "address"
        }
      ],
      "stateMutability": "view",
      "type": "function"
    },
    {
      "inputs": [],
      "name": "renounceOwnership",
      "outputs": [],
      "stateMutability": "nonpayable",
      "type": "function"
    },
    {
      "inputs": [
        {
          "internalType": "address",
          "name": "from",
          "type": "address"
        },
        {
          "internalType": "address",
          "name": "to",
          "type": "address"
        },
        {
          "internalType": "uint256",
          "name": "tokenId",
          "type": "uint256"
        }
      ],
      "name": "safeTransferFrom",
      "outputs": [],
      "stateMutability": "nonpayable",
      "type": "function"
    },
    {
      "inputs": [
        {
          "internalType": "address",
          "name": "from",
          "type": "address"
        },
        {
          "internalType": "address",
          "name": "to",
          "type": "address"
        },
        {
          "internalType": "uint256",
          "name": "tokenId",
          "type": "uint256"
        },
        {
          "internalType": "bytes",
          "name": "_data",
          "type": "bytes"
        }
      ],
      "name": "safeTransferFrom",
      "outputs": [],
      "stateMutability": "nonpayable",
      "type": "function"
    },
    {
      "inputs": [
        {
          "internalType": "address",
          "name": "operator",
          "type": "address"
        },
        {
          "internalType": "bool",
          "name": "approved",
          "type": "bool"
        }
      ],
      "name": "setApprovalForAll",
      "outputs": [],
      "stateMutability": "nonpayable",
      "type": "function"
    },
    {
      "inputs": [],
      "name": "symbol",
      "outputs": [
        {
          "internalType": "string",
          "name": "",
          "type": "string"
        }
      ],
      "stateMutability": "view",
      "type": "function"
    },
    {
      "inputs": [
        {
          "internalType": "uint256",
          "name": "tokenId",
          "type": "uint256"
        }
      ],
      "name": "tokenURI",
      "outputs": [
        {
          "internalType": "string",
          "name": "",
          "type": "string"
        }
      ],
      "stateMutability": "view",
      "type": "function"
    },
    {
      "inputs": [
        {
          "internalType": "address",
          "name": "from",
          "type": "address"
        },
        {
          "internalType": "address",
          "name": "to",
          "type": "address"
        },
        {
          "internalType": "uint256",
          "name": "tokenId",
          "type": "uint256"
        }
      ],
      "name": "transferFrom",
      "outputs": [],
      "stateMutability": "nonpayable",
      "type": "function"
    },
    {
      "inputs": [
        {
          "internalType": "address",
          "name": "newOwner",
          "type": "address"
        }
      ],
      "name": "transferOwnership",
      "outputs": [],
      "stateMutability": "nonpayable",
      "type": "function"
    },
    {
      "inputs": [
        {
          "internalType": "bytes4",
          "name": "interfaceId",
          "type": "bytes4"
        }
      ],
      "name": "supportsInterface",
      "outputs": [
        {
          "internalType": "bool",
          "name": "",
          "type": "bool"
        }
      ],
      "stateMutability": "view",
      "type": "function"
    },
    {
      "inputs": [
        {
          "internalType": "address",
          "name": "to",
          "type": "address"
        },
        {
          "internalType": "uint256",
          "name": "tokenId",
          "type": "uint256"
        }
      ],
      "name": "mint",
      "outputs": [],
      "stateMutability": "nonpayable",
      "type": "function"
    },
    {
      "inputs": [
        {
          "internalType": "uint256",
          "name": "initialValue_",
          "type": "uint256"
        }
      ],
      "name": "setInitialValue",
      "outputs": [],
      "stateMutability": "nonpayable",
      "type": "function"
    },
    {
      "inputs": [
        {
          "internalType": "uint256",
          "name": "tokenId",
          "type": "uint256"
        }
      ],
      "name": "getCard",
      "outputs": [],
      "stateMutability": "payable",
      "type": "function"
    },
    {
      "inputs": [],
      "name": "withdraw",
      "outputs": [],
      "stateMutability": "nonpayable",
      "type": "function"
    }
  ],
  "bytecode": "0x60806040523480156200001157600080fd5b5060405162003764380380620037648339818101604052810190620000379190620002ca565b838381600090805190602001906200005192919062000185565b5080600190805190602001906200006a92919062000185565b5050506200008d62000081620000b760201b60201c565b620000bf60201b60201c565b8160079080519060200190620000a592919062000185565b50806008819055505050505062000541565b600033905090565b6000600660009054906101000a900473ffffffffffffffffffffffffffffffffffffffff16905081600660006101000a81548173ffffffffffffffffffffffffffffffffffffffff021916908373ffffffffffffffffffffffffffffffffffffffff1602179055508173ffffffffffffffffffffffffffffffffffffffff168173ffffffffffffffffffffffffffffffffffffffff167f8be0079c531659141344cd1fd0a4f28419497f9722a3daafe3b4186f6b6457e060405160405180910390a35050565b828054620001939062000438565b90600052602060002090601f016020900481019282620001b7576000855562000203565b82601f10620001d257805160ff191683800117855562000203565b8280016001018555821562000203579182015b8281111562000202578251825591602001919060010190620001e5565b5b50905062000212919062000216565b5090565b5b808211156200023157600081600090555060010162000217565b5090565b60006200024c6200024684620003c2565b62000399565b9050828152602081018484840111156200026b576200026a62000507565b5b6200027884828562000402565b509392505050565b600082601f83011262000298576200029762000502565b5b8151620002aa84826020860162000235565b91505092915050565b600081519050620002c48162000527565b92915050565b60008060008060808587031215620002e757620002e662000511565b5b600085015167ffffffffffffffff8111156200030857620003076200050c565b5b620003168782880162000280565b945050602085015167ffffffffffffffff8111156200033a57620003396200050c565b5b620003488782880162000280565b935050604085015167ffffffffffffffff8111156200036c576200036b6200050c565b5b6200037a8782880162000280565b92505060606200038d87828801620002b3565b91505092959194509250565b6000620003a5620003b8565b9050620003b382826200046e565b919050565b6000604051905090565b600067ffffffffffffffff821115620003e057620003df620004d3565b5b620003eb8262000516565b9050602081019050919050565b6000819050919050565b60005b838110156200042257808201518184015260208101905062000405565b8381111562000432576000848401525b50505050565b600060028204905060018216806200045157607f821691505b60208210811415620004685762000467620004a4565b5b50919050565b620004798262000516565b810181811067ffffffffffffffff821117156200049b576200049a620004d3565b5b80604052505050565b7f4e487b7100000000000000000000000000000000000000000000000000000000600052602260045260246000fd5b7f4e487b7100000000000000000000000000000000000000000000000000000000600052604160045260246000fd5b600080fd5b600080fd5b600080fd5b600080fd5b6000601f19601f8301169050919050565b6200053281620003f8565b81146200053e57600080fd5b50565b61321380620005516000396000f3fe6080604052600436106101405760003560e01c80636352211e116100b6578063a22cb4651161006f578063a22cb4651461043b578063b88d4fde14610464578063c87b56dd1461048d578063e985e9c5146104ca578063f2fde38b14610507578063fa6e74371461053057610140565b80636352211e1461033857806370a0823114610375578063715018a6146103b25780638da5cb5b146103c95780639188d312146103f457806395d89b411461041057610140565b806323b872dd1161010857806323b872dd1461023e5780633ccfd60b146102675780633eaaf86b1461027e57806340c10f19146102a957806342842e0e146102d2578063543fd313146102fb57610140565b806301ffc9a71461014557806306fdde0314610182578063081812fc146101ad578063095ea7b3146101ea5780631b65f55f14610213575b600080fd5b34801561015157600080fd5b5061016c600480360381019061016791906121ca565b610559565b6040516101799190612622565b60405180910390f35b34801561018e57600080fd5b5061019761056b565b6040516101a4919061263d565b60405180910390f35b3480156101b957600080fd5b506101d460048036038101906101cf9190612224565b6105fd565b6040516101e191906125bb565b60405180910390f35b3480156101f657600080fd5b50610211600480360381019061020c919061218a565b610682565b005b34801561021f57600080fd5b5061022861079a565b604051610235919061289f565b60405180910390f35b34801561024a57600080fd5b5061026560048036038101906102609190612074565b6107a0565b005b34801561027357600080fd5b5061027c610800565b005b34801561028a57600080fd5b5061029361096a565b6040516102a0919061289f565b60405180910390f35b3480156102b557600080fd5b506102d060048036038101906102cb919061218a565b610970565b005b3480156102de57600080fd5b506102f960048036038101906102f49190612074565b6109fa565b005b34801561030757600080fd5b50610322600480360381019061031d9190612007565b610a1a565b60405161032f919061289f565b60405180910390f35b34801561034457600080fd5b5061035f600480360381019061035a9190612224565b610a32565b60405161036c91906125bb565b60405180910390f35b34801561038157600080fd5b5061039c60048036038101906103979190612007565b610ae4565b6040516103a9919061289f565b60405180910390f35b3480156103be57600080fd5b506103c7610b9c565b005b3480156103d557600080fd5b506103de610c24565b6040516103eb91906125bb565b60405180910390f35b61040e60048036038101906104099190612224565b610c4e565b005b34801561041c57600080fd5b50610425610d04565b604051610432919061263d565b60405180910390f35b34801561044757600080fd5b50610462600480360381019061045d919061214a565b610d96565b005b34801561047057600080fd5b5061048b600480360381019061048691906120c7565b610f17565b005b34801561049957600080fd5b506104b460048036038101906104af9190612224565b610f79565b6040516104c1919061263d565b60405180910390f35b3480156104d657600080fd5b506104f160048036038101906104ec9190612034565b611020565b6040516104fe9190612622565b60405180910390f35b34801561051357600080fd5b5061052e60048036038101906105299190612007565b6110b4565b005b34801561053c57600080fd5b5061055760048036038101906105529190612224565b6111ac565b005b600061056482611232565b9050919050565b60606000805461057a90612ac4565b80601f01602080910402602001604051908101604052809291908181526020018280546105a690612ac4565b80156105f35780601f106105c8576101008083540402835291602001916105f3565b820191906000526020600020905b8154815290600101906020018083116105d657829003601f168201915b5050505050905090565b600061060882611314565b610647576040517f08c379a000000000000000000000000000000000000000000000000000000000815260040161063e906127bf565b60405180910390fd5b6004600083815260200190815260200160002060009054906101000a900473ffffffffffffffffffffffffffffffffffffffff169050919050565b600061068d82610a32565b90508073ffffffffffffffffffffffffffffffffffffffff168373ffffffffffffffffffffffffffffffffffffffff1614156106fe576040517f08c379a00000000000000000000000000000000000000000000000000000000081526004016106f59061283f565b60405180910390fd5b8073ffffffffffffffffffffffffffffffffffffffff1661071d611380565b73ffffffffffffffffffffffffffffffffffffffff16148061074c575061074b81610746611380565b611020565b5b61078b576040517f08c379a00000000000000000000000000000000000000000000000000000000081526004016107829061273f565b60405180910390fd5b6107958383611388565b505050565b60095481565b6107b16107ab611380565b82611441565b6107f0576040517f08c379a00000000000000000000000000000000000000000000000000000000081526004016107e79061287f565b60405180910390fd5b6107fb83838361151f565b505050565b610808611380565b73ffffffffffffffffffffffffffffffffffffffff16610826610c24565b73ffffffffffffffffffffffffffffffffffffffff161461087c576040517f08c379a0000000000000000000000000000000000000000000000000000000008152600401610873906127df565b60405180910390fd5b6000600a600061088a611380565b73ffffffffffffffffffffffffffffffffffffffff1673ffffffffffffffffffffffffffffffffffffffff1681526020019081526020016000205490506000600a60006108d5611380565b73ffffffffffffffffffffffffffffffffffffffff1673ffffffffffffffffffffffffffffffffffffffff16815260200190815260200160002081905550600061091d611380565b90508073ffffffffffffffffffffffffffffffffffffffff166108fc839081150290604051600060405180830381858888f19350505050158015610965573d6000803e3d6000fd5b505050565b60085481565b610978611380565b73ffffffffffffffffffffffffffffffffffffffff16610996610c24565b73ffffffffffffffffffffffffffffffffffffffff16146109ec576040517f08c379a00000000000000000000000000000000000000000000000000000000081526004016109e3906127df565b60405180910390fd5b6109f68282611779565b5050565b610a1583838360405180602001604052806000815250610f17565b505050565b600a6020528060005260406000206000915090505481565b6000806002600084815260200190815260200160002060009054906101000a900473ffffffffffffffffffffffffffffffffffffffff169050600073ffffffffffffffffffffffffffffffffffffffff168173ffffffffffffffffffffffffffffffffffffffff161415610adb576040517f08c379a0000000000000000000000000000000000000000000000000000000008152600401610ad29061277f565b60405180910390fd5b80915050919050565b60008073ffffffffffffffffffffffffffffffffffffffff168273ffffffffffffffffffffffffffffffffffffffff161415610b55576040517f08c379a0000000000000000000000000000000000000000000000000000000008152600401610b4c9061275f565b60405180910390fd5b600360008373ffffffffffffffffffffffffffffffffffffffff1673ffffffffffffffffffffffffffffffffffffffff168152602001908152602001600020549050919050565b610ba4611380565b73ffffffffffffffffffffffffffffffffffffffff16610bc2610c24565b73ffffffffffffffffffffffffffffffffffffffff1614610c18576040517f08c379a0000000000000000000000000000000000000000000000000000000008152600401610c0f906127df565b60405180910390fd5b610c226000611797565b565b6000600660009054906101000a900473ffffffffffffffffffffffffffffffffffffffff16905090565b600954341015610c93576040517f08c379a0000000000000000000000000000000000000000000000000000000008152600401610c8a9061285f565b60405180910390fd5b610ca4610c9e611380565b82611779565b34600a6000610cb1610c24565b73ffffffffffffffffffffffffffffffffffffffff1673ffffffffffffffffffffffffffffffffffffffff1681526020019081526020016000206000828254610cfa9190612953565b9250508190555050565b606060018054610d1390612ac4565b80601f0160208091040260200160405190810160405280929190818152602001828054610d3f90612ac4565b8015610d8c5780601f10610d6157610100808354040283529160200191610d8c565b820191906000526020600020905b815481529060010190602001808311610d6f57829003601f168201915b5050505050905090565b610d9e611380565b73ffffffffffffffffffffffffffffffffffffffff168273ffffffffffffffffffffffffffffffffffffffff161415610e0c576040517f08c379a0000000000000000000000000000000000000000000000000000000008152600401610e03906126ff565b60405180910390fd5b8060056000610e19611380565b73ffffffffffffffffffffffffffffffffffffffff1673ffffffffffffffffffffffffffffffffffffffff16815260200190815260200160002060008473ffffffffffffffffffffffffffffffffffffffff1673ffffffffffffffffffffffffffffffffffffffff16815260200190815260200160002060006101000a81548160ff0219169083151502179055508173ffffffffffffffffffffffffffffffffffffffff16610ec6611380565b73ffffffffffffffffffffffffffffffffffffffff167f17307eab39ab6107e8899845ad3d59bd9653f200f220920489ca2b5937696c3183604051610f0b9190612622565b60405180910390a35050565b610f28610f22611380565b83611441565b610f67576040517f08c379a0000000000000000000000000000000000000000000000000000000008152600401610f5e9061287f565b60405180910390fd5b610f738484848461185d565b50505050565b6060610f8482611314565b610fc3576040517f08c379a0000000000000000000000000000000000000000000000000000000008152600401610fba9061281f565b60405180910390fd5b6000610fcd6118b9565b90506000815111610fed5760405180602001604052806000815250611018565b80610ff78461194b565b604051602001611008929190612597565b6040516020818303038152906040525b915050919050565b6000600560008473ffffffffffffffffffffffffffffffffffffffff1673ffffffffffffffffffffffffffffffffffffffff16815260200190815260200160002060008373ffffffffffffffffffffffffffffffffffffffff1673ffffffffffffffffffffffffffffffffffffffff16815260200190815260200160002060009054906101000a900460ff16905092915050565b6110bc611380565b73ffffffffffffffffffffffffffffffffffffffff166110da610c24565b73ffffffffffffffffffffffffffffffffffffffff1614611130576040517f08c379a0000000000000000000000000000000000000000000000000000000008152600401611127906127df565b60405180910390fd5b600073ffffffffffffffffffffffffffffffffffffffff168173ffffffffffffffffffffffffffffffffffffffff1614156111a0576040517f08c379a00000000000000000000000000000000000000000000000000000000081526004016111979061267f565b60405180910390fd5b6111a981611797565b50565b6111b4611380565b73ffffffffffffffffffffffffffffffffffffffff166111d2610c24565b73ffffffffffffffffffffffffffffffffffffffff1614611228576040517f08c379a000000000000000000000000000000000000000000000000000000000815260040161121f906127df565b60405180910390fd5b8060098190555050565b60007f80ac58cd000000000000000000000000000000000000000000000000000000007bffffffffffffffffffffffffffffffffffffffffffffffffffffffff1916827bffffffffffffffffffffffffffffffffffffffffffffffffffffffff191614806112fd57507f5b5e139f000000000000000000000000000000000000000000000000000000007bffffffffffffffffffffffffffffffffffffffffffffffffffffffff1916827bffffffffffffffffffffffffffffffffffffffffffffffffffffffff1916145b8061130d575061130c82611aac565b5b9050919050565b60008073ffffffffffffffffffffffffffffffffffffffff166002600084815260200190815260200160002060009054906101000a900473ffffffffffffffffffffffffffffffffffffffff1673ffffffffffffffffffffffffffffffffffffffff1614159050919050565b600033905090565b816004600083815260200190815260200160002060006101000a81548173ffffffffffffffffffffffffffffffffffffffff021916908373ffffffffffffffffffffffffffffffffffffffff160217905550808273ffffffffffffffffffffffffffffffffffffffff166113fb83610a32565b73ffffffffffffffffffffffffffffffffffffffff167f8c5be1e5ebec7d5bd14f71427d1e84f3dd0314c0f7b2291e5b200ac8c7c3b92560405160405180910390a45050565b600061144c82611314565b61148b576040517f08c379a00000000000000000000000000000000000000000000000000000000081526004016114829061271f565b60405180910390fd5b600061149683610a32565b90508073ffffffffffffffffffffffffffffffffffffffff168473ffffffffffffffffffffffffffffffffffffffff16148061150557508373ffffffffffffffffffffffffffffffffffffffff166114ed846105fd565b73ffffffffffffffffffffffffffffffffffffffff16145b8061151657506115158185611020565b5b91505092915050565b8273ffffffffffffffffffffffffffffffffffffffff1661153f82610a32565b73ffffffffffffffffffffffffffffffffffffffff1614611595576040517f08c379a000000000000000000000000000000000000000000000000000000000815260040161158c906127ff565b60405180910390fd5b600073ffffffffffffffffffffffffffffffffffffffff168273ffffffffffffffffffffffffffffffffffffffff161415611605576040517f08c379a00000000000000000000000000000000000000000000000000000000081526004016115fc906126df565b60405180910390fd5b61160e81611b16565b611619600082611388565b6001600360008573ffffffffffffffffffffffffffffffffffffffff1673ffffffffffffffffffffffffffffffffffffffff168152602001908152602001600020600082825461166991906129da565b925050819055506001600360008473ffffffffffffffffffffffffffffffffffffffff1673ffffffffffffffffffffffffffffffffffffffff16815260200190815260200160002060008282546116c09190612953565b92505081905550816002600083815260200190815260200160002060006101000a81548173ffffffffffffffffffffffffffffffffffffffff021916908373ffffffffffffffffffffffffffffffffffffffff160217905550808273ffffffffffffffffffffffffffffffffffffffff168473ffffffffffffffffffffffffffffffffffffffff167fddf252ad1be2c89b69c2b068fc378daa952ba7f163c4a11628f55a4df523b3ef60405160405180910390a4505050565b611793828260405180602001604052806000815250611b5e565b5050565b6000600660009054906101000a900473ffffffffffffffffffffffffffffffffffffffff16905081600660006101000a81548173ffffffffffffffffffffffffffffffffffffffff021916908373ffffffffffffffffffffffffffffffffffffffff1602179055508173ffffffffffffffffffffffffffffffffffffffff168173ffffffffffffffffffffffffffffffffffffffff167f8be0079c531659141344cd1fd0a4f28419497f9722a3daafe3b4186f6b6457e060405160405180910390a35050565b61186884848461151f565b61187484848484611bb9565b6118b3576040517f08c379a00000000000000000000000000000000000000000000000000000000081526004016118aa9061265f565b60405180910390fd5b50505050565b6060600780546118c890612ac4565b80601f01602080910402602001604051908101604052809291908181526020018280546118f490612ac4565b80156119415780601f1061191657610100808354040283529160200191611941565b820191906000526020600020905b81548152906001019060200180831161192457829003601f168201915b5050505050905090565b60606000821415611993576040518060400160405280600181526020017f30000000000000000000000000000000000000000000000000000000000000008152509050611aa7565b600082905060005b600082146119c55780806119ae90612b27565b915050600a826119be91906129a9565b915061199b565b60008167ffffffffffffffff8111156119e1576119e0612c5d565b5b6040519080825280601f01601f191660200182016040528015611a135781602001600182028036833780820191505090505b5090505b60008514611aa057600182611a2c91906129da565b9150600a85611a3b9190612b70565b6030611a479190612953565b60f81b818381518110611a5d57611a5c612c2e565b5b60200101907effffffffffffffffffffffffffffffffffffffffffffffffffffffffffffff1916908160001a905350600a85611a9991906129a9565b9450611a17565b8093505050505b919050565b60007f01ffc9a7000000000000000000000000000000000000000000000000000000007bffffffffffffffffffffffffffffffffffffffffffffffffffffffff1916827bffffffffffffffffffffffffffffffffffffffffffffffffffffffff1916149050919050565b600854811115611b5b576040517f08c379a0000000000000000000000000000000000000000000000000000000008152600401611b52906126bf565b60405180910390fd5b50565b611b688383611d50565b611b756000848484611bb9565b611bb4576040517f08c379a0000000000000000000000000000000000000000000000000000000008152600401611bab9061265f565b60405180910390fd5b505050565b6000611bda8473ffffffffffffffffffffffffffffffffffffffff16611f1b565b15611d43578373ffffffffffffffffffffffffffffffffffffffff1663150b7a02611c03611380565b8786866040518563ffffffff1660e01b8152600401611c2594939291906125d6565b602060405180830381600087803b158015611c3f57600080fd5b505af1925050508015611c7057506040513d601f19601f82011682018060405250810190611c6d91906121f7565b60015b611cf3573d8060008114611ca0576040519150601f19603f3d011682016040523d82523d6000602084013e611ca5565b606091505b50600081511415611ceb576040517f08c379a0000000000000000000000000000000000000000000000000000000008152600401611ce29061265f565b60405180910390fd5b805181602001fd5b63150b7a0260e01b7bffffffffffffffffffffffffffffffffffffffffffffffffffffffff1916817bffffffffffffffffffffffffffffffffffffffffffffffffffffffff191614915050611d48565b600190505b949350505050565b600073ffffffffffffffffffffffffffffffffffffffff168273ffffffffffffffffffffffffffffffffffffffff161415611dc0576040517f08c379a0000000000000000000000000000000000000000000000000000000008152600401611db79061279f565b60405180910390fd5b611dc981611314565b15611e09576040517f08c379a0000000000000000000000000000000000000000000000000000000008152600401611e009061269f565b60405180910390fd5b611e1281611b16565b6001600360008473ffffffffffffffffffffffffffffffffffffffff1673ffffffffffffffffffffffffffffffffffffffff1681526020019081526020016000206000828254611e629190612953565b92505081905550816002600083815260200190815260200160002060006101000a81548173ffffffffffffffffffffffffffffffffffffffff021916908373ffffffffffffffffffffffffffffffffffffffff160217905550808273ffffffffffffffffffffffffffffffffffffffff16600073ffffffffffffffffffffffffffffffffffffffff167fddf252ad1be2c89b69c2b068fc378daa952ba7f163c4a11628f55a4df523b3ef60405160405180910390a45050565b600080823b905060008111915050919050565b6000611f41611f3c846128df565b6128ba565b905082815260208101848484011115611f5d57611f5c612c91565b5b611f68848285612a82565b509392505050565b600081359050611f7f81613181565b92915050565b600081359050611f9481613198565b92915050565b600081359050611fa9816131af565b92915050565b600081519050611fbe816131af565b92915050565b600082601f830112611fd957611fd8612c8c565b5b8135611fe9848260208601611f2e565b91505092915050565b600081359050612001816131c6565b92915050565b60006020828403121561201d5761201c612c9b565b5b600061202b84828501611f70565b91505092915050565b6000806040838503121561204b5761204a612c9b565b5b600061205985828601611f70565b925050602061206a85828601611f70565b9150509250929050565b60008060006060848603121561208d5761208c612c9b565b5b600061209b86828701611f70565b93505060206120ac86828701611f70565b92505060406120bd86828701611ff2565b9150509250925092565b600080600080608085870312156120e1576120e0612c9b565b5b60006120ef87828801611f70565b945050602061210087828801611f70565b935050604061211187828801611ff2565b925050606085013567ffffffffffffffff81111561213257612131612c96565b5b61213e87828801611fc4565b91505092959194509250565b6000806040838503121561216157612160612c9b565b5b600061216f85828601611f70565b925050602061218085828601611f85565b9150509250929050565b600080604083850312156121a1576121a0612c9b565b5b60006121af85828601611f70565b92505060206121c085828601611ff2565b9150509250929050565b6000602082840312156121e0576121df612c9b565b5b60006121ee84828501611f9a565b91505092915050565b60006020828403121561220d5761220c612c9b565b5b600061221b84828501611faf565b91505092915050565b60006020828403121561223a57612239612c9b565b5b600061224884828501611ff2565b91505092915050565b61225a81612a0e565b82525050565b61226981612a20565b82525050565b600061227a82612910565b6122848185612926565b9350612294818560208601612a91565b61229d81612ca0565b840191505092915050565b60006122b38261291b565b6122bd8185612937565b93506122cd818560208601612a91565b6122d681612ca0565b840191505092915050565b60006122ec8261291b565b6122f68185612948565b9350612306818560208601612a91565b80840191505092915050565b600061231f603283612937565b915061232a82612cb1565b604082019050919050565b6000612342602683612937565b915061234d82612d00565b604082019050919050565b6000612365601c83612937565b915061237082612d4f565b602082019050919050565b6000612388601d83612937565b915061239382612d78565b602082019050919050565b60006123ab602483612937565b91506123b682612da1565b604082019050919050565b60006123ce601983612937565b91506123d982612df0565b602082019050919050565b60006123f1602c83612937565b91506123fc82612e19565b604082019050919050565b6000612414603883612937565b915061241f82612e68565b604082019050919050565b6000612437602a83612937565b915061244282612eb7565b604082019050919050565b600061245a602983612937565b915061246582612f06565b604082019050919050565b600061247d602083612937565b915061248882612f55565b602082019050919050565b60006124a0602c83612937565b91506124ab82612f7e565b604082019050919050565b60006124c3602083612937565b91506124ce82612fcd565b602082019050919050565b60006124e6602983612937565b91506124f182612ff6565b604082019050919050565b6000612509602f83612937565b915061251482613045565b604082019050919050565b600061252c602183612937565b915061253782613094565b604082019050919050565b600061254f603883612937565b915061255a826130e3565b604082019050919050565b6000612572603183612937565b915061257d82613132565b604082019050919050565b61259181612a78565b82525050565b60006125a382856122e1565b91506125af82846122e1565b91508190509392505050565b60006020820190506125d06000830184612251565b92915050565b60006080820190506125eb6000830187612251565b6125f86020830186612251565b6126056040830185612588565b8181036060830152612617818461226f565b905095945050505050565b60006020820190506126376000830184612260565b92915050565b6000602082019050818103600083015261265781846122a8565b905092915050565b6000602082019050818103600083015261267881612312565b9050919050565b6000602082019050818103600083015261269881612335565b9050919050565b600060208201905081810360008301526126b881612358565b9050919050565b600060208201905081810360008301526126d88161237b565b9050919050565b600060208201905081810360008301526126f88161239e565b9050919050565b60006020820190508181036000830152612718816123c1565b9050919050565b60006020820190508181036000830152612738816123e4565b9050919050565b6000602082019050818103600083015261275881612407565b9050919050565b600060208201905081810360008301526127788161242a565b9050919050565b600060208201905081810360008301526127988161244d565b9050919050565b600060208201905081810360008301526127b881612470565b9050919050565b600060208201905081810360008301526127d881612493565b9050919050565b600060208201905081810360008301526127f8816124b6565b9050919050565b60006020820190508181036000830152612818816124d9565b9050919050565b60006020820190508181036000830152612838816124fc565b9050919050565b600060208201905081810360008301526128588161251f565b9050919050565b6000602082019050818103600083015261287881612542565b9050919050565b6000602082019050818103600083015261289881612565565b9050919050565b60006020820190506128b46000830184612588565b92915050565b60006128c46128d5565b90506128d08282612af6565b919050565b6000604051905090565b600067ffffffffffffffff8211156128fa576128f9612c5d565b5b61290382612ca0565b9050602081019050919050565b600081519050919050565b600081519050919050565b600082825260208201905092915050565b600082825260208201905092915050565b600081905092915050565b600061295e82612a78565b915061296983612a78565b9250827fffffffffffffffffffffffffffffffffffffffffffffffffffffffffffffffff0382111561299e5761299d612ba1565b5b828201905092915050565b60006129b482612a78565b91506129bf83612a78565b9250826129cf576129ce612bd0565b5b828204905092915050565b60006129e582612a78565b91506129f083612a78565b925082821015612a0357612a02612ba1565b5b828203905092915050565b6000612a1982612a58565b9050919050565b60008115159050919050565b60007fffffffff0000000000000000000000000000000000000000000000000000000082169050919050565b600073ffffffffffffffffffffffffffffffffffffffff82169050919050565b6000819050919050565b82818337600083830152505050565b60005b83811015612aaf578082015181840152602081019050612a94565b83811115612abe576000848401525b50505050565b60006002820490506001821680612adc57607f821691505b60208210811415612af057612aef612bff565b5b50919050565b612aff82612ca0565b810181811067ffffffffffffffff82111715612b1e57612b1d612c5d565b5b80604052505050565b6000612b3282612a78565b91507fffffffffffffffffffffffffffffffffffffffffffffffffffffffffffffffff821415612b6557612b64612ba1565b5b600182019050919050565b6000612b7b82612a78565b9150612b8683612a78565b925082612b9657612b95612bd0565b5b828206905092915050565b7f4e487b7100000000000000000000000000000000000000000000000000000000600052601160045260246000fd5b7f4e487b7100000000000000000000000000000000000000000000000000000000600052601260045260246000fd5b7f4e487b7100000000000000000000000000000000000000000000000000000000600052602260045260246000fd5b7f4e487b7100000000000000000000000000000000000000000000000000000000600052603260045260246000fd5b7f4e487b7100000000000000000000000000000000000000000000000000000000600052604160045260246000fd5b600080fd5b600080fd5b600080fd5b600080fd5b6000601f19601f8301169050919050565b7f4552433732313a207472616e7366657220746f206e6f6e20455243373231526560008201527f63656976657220696d706c656d656e7465720000000000000000000000000000602082015250565b7f4f776e61626c653a206e6577206f776e657220697320746865207a65726f206160008201527f6464726573730000000000000000000000000000000000000000000000000000602082015250565b7f4552433732313a20746f6b656e20616c7265616479206d696e74656400000000600082015250565b7f746865726520617265206f6e6c7920353420706c617920636172647321000000600082015250565b7f4552433732313a207472616e7366657220746f20746865207a65726f2061646460008201527f7265737300000000000000000000000000000000000000000000000000000000602082015250565b7f4552433732313a20617070726f766520746f2063616c6c657200000000000000600082015250565b7f4552433732313a206f70657261746f7220717565727920666f72206e6f6e657860008201527f697374656e7420746f6b656e0000000000000000000000000000000000000000602082015250565b7f4552433732313a20617070726f76652063616c6c6572206973206e6f74206f7760008201527f6e6572206e6f7220617070726f76656420666f7220616c6c0000000000000000602082015250565b7f4552433732313a2062616c616e636520717565727920666f7220746865207a6560008201527f726f206164647265737300000000000000000000000000000000000000000000602082015250565b7f4552433732313a206f776e657220717565727920666f72206e6f6e657869737460008201527f656e7420746f6b656e0000000000000000000000000000000000000000000000602082015250565b7f4552433732313a206d696e7420746f20746865207a65726f2061646472657373600082015250565b7f4552433732313a20617070726f76656420717565727920666f72206e6f6e657860008201527f697374656e7420746f6b656e0000000000000000000000000000000000000000602082015250565b7f4f776e61626c653a2063616c6c6572206973206e6f7420746865206f776e6572600082015250565b7f4552433732313a207472616e73666572206f6620746f6b656e2074686174206960008201527f73206e6f74206f776e0000000000000000000000000000000000000000000000602082015250565b7f4552433732314d657461646174613a2055524920717565727920666f72206e6f60008201527f6e6578697374656e7420746f6b656e0000000000000000000000000000000000602082015250565b7f4552433732313a20617070726f76616c20746f2063757272656e74206f776e6560008201527f7200000000000000000000000000000000000000000000000000000000000000602082015250565b7f796f75206861766520746f20706179206174206c6561737420657175616c207460008201527f6f206578697374696e6720696e697469616c2076616c75650000000000000000602082015250565b7f4552433732313a207472616e736665722063616c6c6572206973206e6f74206f60008201527f776e6572206e6f7220617070726f766564000000000000000000000000000000602082015250565b61318a81612a0e565b811461319557600080fd5b50565b6131a181612a20565b81146131ac57600080fd5b50565b6131b881612a2c565b81146131c357600080fd5b50565b6131cf81612a78565b81146131da57600080fd5b5056fea26469706673582212208aba3f51d5bee61553a803b75aa147533b4a7959a2f95763c1eb4504a146596564736f6c63430008070033",
  "immutableReferences": {},
  "source": "// SPDX-License-Identifier: MIT\r\n\r\npragma solidity >=0.8.0;\r\n\r\nimport \"./ERC721.sol\";\r\nimport \"./abstract/Ownable.sol\";\r\n\r\ncontract PlayCards is ERC721, Ownable {\r\n\r\n    string private _baseTokenURI;\r\n    uint256 public _totalSupply;\r\n    uint256 public _initialValue;\r\n\r\n    mapping(address => uint256) public earnings;\r\n\r\n\r\n    constructor(\r\n        string memory name,\r\n        string memory symbol,\r\n        string memory baseTokenURI,\r\n        uint256 totalSupply\r\n    ) ERC721(name, symbol) {\r\n        _baseTokenURI = baseTokenURI;\r\n        _totalSupply = totalSupply;\r\n    }\r\n\r\n    function supportsInterface(bytes4 interfaceId)\r\n        public\r\n        view\r\n        virtual\r\n        override\r\n        returns (bool)\r\n    {\r\n        return super.supportsInterface(interfaceId);\r\n    }\r\n\r\n    function _baseURI() internal view virtual override returns (string memory) {\r\n        return _baseTokenURI;\r\n    }\r\n\r\n\r\n    function _beforeTokenTransfer(uint256 tokenId) internal virtual override {\r\n        require(tokenId <= _totalSupply, \"there are only 54 play cards!\");\r\n    }\r\n\r\n    function mint(address to, uint256 tokenId) public onlyOwner{\r\n        _safeMint(to, tokenId);\r\n    }\r\n\r\n    function setInitialValue(uint256 initialValue_) public onlyOwner {\r\n        _initialValue = initialValue_;\r\n    }\r\n\r\n\r\n    function getCard(uint256 tokenId) public payable{\r\n        require(msg.value >= _initialValue, \"you have to pay at least equal to existing initial value\");\r\n        _safeMint(_msgSender(), tokenId);\r\n        earnings[owner()] += msg.value;\r\n    }\r\n\r\n    function withdraw() public onlyOwner {\r\n        uint256 amount = earnings[_msgSender()];\r\n        earnings[_msgSender()] = 0;\r\n        address payable reciever = payable(_msgSender());\r\n        reciever.transfer(amount);\r\n    }\r\n}",
  "sourcePath": "C:\\Users\\Shahre Narmafzar\\Desktop\\BlockChain\\Ethereum\\loutus\\PlayCardsCollectible\\contracts\\playcards.sol",
  "compiler": {
    "name": "solc",
    "version": "0.8.7+commit.e28d00a7.Emscripten.clang"
  },
  "schemaVersion": "3.4.3",
  "updatedAt": "2021-08-31T04:16:39.757Z",
  "devdoc": {
    "kind": "dev",
    "methods": {
      "approve(address,uint256)": {
        "details": "See {IERC721-approve}."
      },
      "balanceOf(address)": {
        "details": "See {IERC721-balanceOf}."
      },
      "getApproved(uint256)": {
        "details": "See {IERC721-getApproved}."
      },
      "isApprovedForAll(address,address)": {
        "details": "See {IERC721-isApprovedForAll}."
      },
      "name()": {
        "details": "See {IERC721Metadata-name}."
      },
      "owner()": {
        "details": "Returns the address of the current owner."
      },
      "ownerOf(uint256)": {
        "details": "See {IERC721-ownerOf}."
      },
      "renounceOwnership()": {
        "details": "Leaves the contract without owner. It will not be possible to call `onlyOwner` functions anymore. Can only be called by the current owner. NOTE: Renouncing ownership will leave the contract without an owner, thereby removing any functionality that is only available to the owner."
      },
      "safeTransferFrom(address,address,uint256)": {
        "details": "See {IERC721-safeTransferFrom}."
      },
      "safeTransferFrom(address,address,uint256,bytes)": {
        "details": "See {IERC721-safeTransferFrom}."
      },
      "setApprovalForAll(address,bool)": {
        "details": "See {IERC721-setApprovalForAll}."
      },
      "supportsInterface(bytes4)": {
        "details": "See {IERC165-supportsInterface}."
      },
      "symbol()": {
        "details": "See {IERC721Metadata-symbol}."
      },
      "tokenURI(uint256)": {
        "details": "See {IERC721Metadata-tokenURI}."
      },
      "transferFrom(address,address,uint256)": {
        "details": "See {IERC721-transferFrom}."
      },
      "transferOwnership(address)": {
        "details": "Transfers ownership of the contract to a new account (`newOwner`). Can only be called by the current owner."
      }
    },
    "version": 1
  },
  "userdoc": {
    "kind": "user",
    "methods": {},
    "version": 1
  }
}